:1000000014C1000040C100003EC100003CC100001E
:100010003AC1000038C1000036C1000034C1000000
:1000200032C1000030C100002EC100002CC1000010
:100030002AC1000028C1000026C1000024C1000020
:1000400022C1000020C100001EC100001CC1000030
:100050001AC1000018C1000016C1000062C30000F0
:1000600012C1000010C100000EC100000CC1000050
:100070000AC1000008C1000006C1000004C1000060
:1000800002C1000000C10000FEC00000FCC0000072
:10009000FAC00000F8C00000F6C00000F4C0000084
:1000A000F2C00000F0C00000EEC00000ECC0000094
:1000B000EAC00000E8C00000E6C00000E4C00000A4
:1000C000E2C00000E0C00000DEC00000DCC00000B4
:1000D000DAC00000D8C00000D6C00000D4C00000C4
:1000E000D2C000005E016101500154015A01980123
:1000F000650169016F01730177017D01810185014E
:1001000098018B018F01930100002000230026003D
:1001100029002C002F00320000010000030106011D
:10012000090100002100240027002A002D003000D2
:10013000330001010000040107010A010000220050
:10014000250028002B002E003100340002010000A1
:10015000050108010B010505050507050808080844
:10016000020202020A0A080804040404010101014F
:10017000010101010303030303030303040707074A
:100180000C0C0C0C0C0C0C0C0202020206060606EF
:10019000060606060B0B0B0B0B0B0B0B01021020BC
:1001A00020080810204010204080020102010804AD
:1001B0000201010204081020408080402010080441
:1001C000020180040201804020100804020108049A
:1001D00002010102040810204080010204081020DE
:1001E000408000000A0B02090C0D0E0807030401F1
:1001F00000000000000000000000000000000000FF
:1002000000000000000000000000000000001211CB
:1002100010000000000000000000000000000000CE
:100220000000000000000000C20511241FBECFEF37
:10023000D1E2DEBFCDBF00E00CBF12E0A0E0B2E033
:10024000ECE6FEE000E00BBF02C007900D92AE317D
:10025000B107D9F722E0AEE1B2E001C01D92A334AC
:10026000B207E1F711E0C5E1D1E000E005C0219758
:100270000109802FFE01ECD5C431D10780E00807C9
:10028000B1F7DED2F1C5BCCE90E0FC013197E2318E
:10029000F10508F04DC08827EE58FF4F8F4FD8C5A5
:1002A000809180008F7703C0809180008F7D809344
:1002B0008000089580918000877FF9CF84B58F7783
:1002C00002C084B58F7D84BD08958091B0008F7782
:1002D00003C08091B0008F7D8093B000089580911D
:1002E00090008F7707C0809190008F7D03C0809130
:1002F0009000877F8093900008958091A0008F7771
:1003000007C08091A0008F7D03C08091A000877FEF
:100310008093A0000895809120018F7707C080917D
:1003200020018F7D03C080912001877F8093200171
:1003300008951F93CF93DF93282F30E0F901EE51FA
:10034000FE4F8491F901E456FE4FD491F901EA5A27
:10035000FE4FC491CC23B9F0162F811195DFEC2FFD
:10036000F0E0EE0FFF1FE45CFE4FA591B4919FB744
:10037000F894111104C08C91D095D82302C0EC914F
:10038000DE2BDC939FBFDF91CF911F910895CF9318
:10039000DF9390E0FC01E456FE4F2491FC01EA5A01
:1003A000FE4F8491882361F190E0880F991FFC0132
:1003B000EE5DFE4FC591D491FC01E45CFE4FA5912A
:1003C000B491611109C09FB7F89488812095822368
:1003D0008883EC912E230BC0623061F49FB7F894B0
:1003E0008881322F309583238883EC912E2B2C9398
:1003F0009FBF06C08FB7F894E8812E2B28838FBF4C
:10040000DF91CF9108953FB7F894809127029091A2
:100410002802A0912902B0912A0226B5A89B05C006
:100420002F3F19F00196A11DB11D3FBFBA2FA92F73
:10043000982F8827820F911DA11DB11DBC01CD01F0
:1004400042E0660F771F881F991F4A95D1F70895DC
:10045000CF92DF92EF92FF920F931F93CF93DF9390
:100460006C017A018B01C0E0D0E0CE15DF0581F090
:10047000D8016D918D01D601ED91FC910190F08133
:10048000E02DC6011995892B11F02196EECF7E0142
:10049000C701DF91CF911F910F91FF90EF90DF90F7
:1004A000CF900895CF93DF93EC0160E08E8141DF20
:1004B00061E08E813EDF60E08E813BDF8BE891E082
:1004C0000197F1F7DF91CF910895CF92DF92EF92EC
:1004D000FF920F931F93CF93DF936C017C0187E012
:1004E000E80EF11CC0E0D0E0062F10E0B8010C2EA1
:1004F00002C0759567950A94E2F76170F7018191E2
:100500007F0117DF2196C430D10581F7C601DF9145
:10051000CF911F910F91FF90EF90DF90CF90C2CFBE
:10052000CF92DF92EF92FF920F931F93CF93DF93BF
:10053000EC01F62E642F8C81FCDE8D818F3F11F053
:1005400060E0F7DE8F850F2D10E084FF23C06E0181
:1005500087E0C80ED11CE12CF12CB8010E2C02C092
:10056000759567950A94E2F76170F60181916F01C4
:10057000E0DEFFEFEF1AFF0A88E0E816F10469F702
:10058000CE01DF91CF911F910F91FF90EF90DF90FF
:10059000CF9088CFB80184E0759567958A95E1F78B
:1005A000CE0193DF6F2DCE01DF91CF911F910F917F
:1005B000FF90EF90DF90CF9088CF40E0682F8BE2E4
:1005C00092E0AECFCF93DF93823028F090913A0241
:1005D000986090933A0280933E0210923F0280E42A
:1005E0008093400280E18093410280E58093420243
:1005F00061E080912F02CBDE809130028F3F11F0BD
:1006000061E0C5DE61E080913102C1DECBE2D2E083
:100610009E012B52324080913A0284FD03C084E057
:1006200090E002C088E090E021962817390724F472
:1006300061E08E81ACDEECCF8BE39DE00197F1F7BA
:1006400060E080912F0275DE60E08091310271DE02
:10065000809130028F3F11F060E06BDE80913A02B2
:1006600084FD1CC063E08BE292E02FDFCBE4D6E494
:10067000CE010197F1F763E08BE292E026DF21974C
:10068000F1F763E08BE292E020DF83E592E00197EF
:10069000F1F762E08BE292E018DF12C080628DDF3A
:1006A0008BE496E40197F1F780913A02806285DF4E
:1006B00083E592E00197F1F780913A0280627DDF55
:1006C00080913A02806279DF84E080933B028CE083
:1006D00074DF81E072DF8BE39FE10197F1F782E045
:1006E00080933C0286E0DF91CF9167CF41E018DF35
:1006F00081E090E00895089580E090E008950097EB
:1007000061F0FC0101900020E9F73197AF01481B2F
:10071000590BBC018BE292E09BCE80E090E0089503
:100720009FD31F920F920FB60F9211242F933F93D6
:100730008F939F93AF93BF93809123029091240254
:10074000A0912502B09126023091220223E0230FCE
:100750002D3720F40196A11DB11D05C026E8230FF9
:100760000296A11DB11D2093220280932302909333
:100770002402A0932502B093260280912702909133
:100780002802A0912902B0912A020196A11DB11D53
:100790008093270290932802A0932902B0932A0203
:1007A000BF91AF919F918F913F912F910F900FBE6D
:1007B0000F901F901895CF92DF92EF92FF920F93B8
:1007C0001F93E82FF92F05C00150110921093109A4
:1007D00061F1908196239417B9F305C00150110976
:1007E0002109310911F1908196239413F7CFC12C7F
:1007F000D12CE12CF12C0AC08FEFC81AD80AE80AD4
:10080000F80A0C151D052E053F0579F08081862319
:10081000841791F36C2D7D2D8E2D9F2D1F910F919F
:10082000FF90EF90DF90CF90089560E070E080E05F
:1008300090E01F910F91FF90EF90DF90CF9008957F
:10084000CF93DF93CDB7DEB7A1970FB6F894DEBF95
:100850000FBECDBF789484B5826084BD84B58160BD
:1008600084BD85B5826085BD85B5816085BD80917B
:100870006E00816080936E001092810080918100F3
:1008800082608093810080918100816080938100EB
:10089000809180008160809380008091B1008460AD
:1008A0008093B1008091B00081608093B00080910E
:1008B000910082608093910080919100816080938B
:1008C0009100809190008160809390008091A100C0
:1008D00082608093A1008091A10081608093A1003B
:1008E0008091A00081608093A000809121018260AE
:1008F0008093210180912101816080932101809169
:10090000200181608093200180917A00846080932F
:100910007A0080917A00826080937A0080917A00D8
:10092000816080937A0080917A00806880937A0059
:100930001092C10082E046DE61E087E028DD60E0E1
:1009400086E025DD61E082E022DD61E083E01FDDFD
:1009500061E084E01CDD61E085E019DD61E086E3B3
:1009600016DD60E087E313DD5BE3252E5FE1352EC6
:100970006AE0862E912CA12CB12C81E01EDEC101F3
:100980000197F1F7E1E080913E028111E0E0E1950D
:10099000F0E0E55DFD4F848980680FDE8CE092E039
:1009A000AEDEE0913E02E23010F4E15001C0E1E041
:1009B000F0E0E55DFD4F84898068FFDDC0901E0298
:1009C000D0901F02E0902002F0902102F7FE1FC09D
:1009D00041E06DE28BE292E0A3DD22273327A901FB
:1009E0002C193D094E095F0919A2CE0181967C019F
:1009F000CA01B901A501940109D2605DF7016293B2
:100A00007F01211531054105510591F714C0A7015A
:100A1000960119A2CE0181967C01CA01B901A501F6
:100A20009401F4D1605DF70162937F0121153105D6
:100A30004105510591F7C70162DE88E192E05FDE72
:100A40008BE192E05CDEDFDC2B013C0148EEC42E42
:100A500043E0D42EE12CF12CD6DCDC01CB0184194F
:100A60009509A609B709883E9340A105B105A0F3F1
:100A7000F1E0CF1AD108E108F10828EE420E23E098
:100A8000521E611C711CC114D104E104F10421F750
:100A900060E087E04EDC83E090E00197F1F761E0F1
:100AA00087E047DC83E290E00197F1F760E087E0C0
:100AB00040DCE2EAF1E06491ECE5F1E08491E82FBA
:100AC000F0E0EE0FFF1FE85FFE4F8591949100E488
:100AD00012E42FE030E0462F6EDE611571058105CE
:100AE000910539F0DC01CB010196A11DB11DBF704C
:100AF00003C080E090E0DC01BC01CD0195958795B5
:100B000077956795F7D02DEC3CEC48EE51E457D043
:100B1000BED060931E0270931F02809320029093B8
:100B2000210261E082E005DC60E083E002DC61E05C
:100B300084E0FFDB60E085E0FCDBE9E1F2E084914A
:100B4000E3EDF1E0F490EDE8F1E0E490EE2079F0EF
:100B500081119ADBEE2DF0E0EE0FFF1FE85FFE4FF4
:100B6000A591B4918C91F82211F061E001C060E090
:100B700086E3DFDB80E090E0892B09F4FECE0E9463
:100B80000000FBCEEBE2F2E01382128284E092E0FE
:100B9000918380838DE084838FEF85838CE08683CF
:100BA0008BE087838AE0808789E0818788E082877D
:100BB0001386148615861686178681E003CD0CD021
:100BC000EBC0E3D040F0DAD030F021F45F3F19F011
:100BD000CCC0511115C1CFC0F0D098F39923C9F3FF
:100BE0005523B1F3951B550BBB27AA276217730733
:100BF000840738F09F5F5F4F220F331F441FAA1FE7
:100C0000A9F333D00E2E3AF0E0E830D091505040A6
:100C1000E695001CCAF729D0FE2F27D0660F771F54
:100C2000881FBB1F261737074807AB07B0E809F036
:100C3000BB0B802DBF01FF2793585F4F2AF09E3FCB
:100C4000510568F092C0DCC05F3FECF3983EDCF3E6
:100C5000869577956795B795F7959F5FC9F7880F44
:100C6000911D9695879597F90895E1E0660F771F96
:100C7000881FBB1F621773078407BA0720F0621B27
:100C8000730B840BBA0BEE1F88F7E095089504D020
:100C90006894B111B5C0089598D088F09F5790F02E
:100CA000B92F9927B751A0F0D1F0660F771F881F91
:100CB000991F1AF0BA95C9F712C0B13081F09FD0D0
:100CC000B1E008959CC0672F782F8827B85F39F06E
:100CD000B93FCCF3869577956795B395D9F73EF4F0
:100CE00090958095709561957F4F8F4F9F4F089598
:100CF000E89409C097FB3EF49095809570956195B6
:100D00007F4F8F4F9F4F9923A9F0F92F96E9BB276B
:100D10009395F695879577956795B795F111F8CFE7
:100D2000FAF4BB0F11F460FF1BC06F5F7F4F8F4F52
:100D30009F4F16C0882311F096E911C0772321F048
:100D40009EE8872F762F05C0662371F096E8862FE0
:100D500070E060E02AF09A95660F771F881FDAF737
:100D6000880F9695879597F9089597F99F6780E87A
:100D700070E060E008959FEF80EC089500240A94ED
:100D80001616170618060906089500240A94121666
:100D90001306140605060895092E0394000C11F499
:100DA000882352F0BB0F40F4BF2B11F460FF04C046
:100DB0006F5F7F4F8F4F9F4F089557FD9058440F9F
:100DC000551F59F05F3F71F04795880F97FB991FAA
:100DD00061F09F3F79F08795089512161306140667
:100DE000551FF2CF4695F1DF08C0161617061806F4
:100DF000991FF1CF86957105610508940895E894CF
:100E0000BB2766277727CB0197F90895A1E21A2E11
:100E1000AA1BBB1BFD010DC0AA1FBB1FEE1FFF1F9E
:100E2000A217B307E407F50720F0A21BB30BE40BEE
:100E3000F50B661F771F881F991F1A9469F7609535
:100E40007095809590959B01AC01BD01CF010895EF
:100E5000EE0FFF1F881F8BBF0790F691E02D1994AE
:0C0E600081E090E0F89400C0F894FFCF0F
:100E6C0000000000760328027C037B034469737442
:0E0E7C00616E6365203A2000636D000D0A0070
:00000001FF
